:020000040800F2
:1000000000000220610F00082123000823230008BC
:1000100025230008272300082923000800000000EA
:100020000000000000000000000000002B2300087A
:100030002D230008000000002F23000831230008B2
:10004000B10F0008B10F0008B10F0008B10F000890
:10005000B10F0008B10F0008B10F0008B10F000880
:10006000B10F0008B10F0008B10F0008B10F000870
:10007000B10F0008B10F0008B10F0008B10F000860
:10008000B10F0008B10F0008B10F00080000000018
:10009000000000000000000000000000B10F000898
:1000A000B10F000839230008B10F0008B10F000894
:1000B000B10F0008B10F0008B10F00084923000874
:1000C00059230008B10F0008B10F0008B10F000854
:1000D000B10F0008B10F00086923000800000000FC
:1000E000B10F0008B10F0008B10F000800000000B8
:1000F000000000000000000000000000B10F000838
:1001000000000000B10F0008B10F0008B10F000897
:1001100000000000000000000000000000000000DF
:10012000B10F0008B10F0008B10F0008B10F0008AF
:10013000B10F0008000000000000000000000000F7
:10014000000000000000000000000000B10F0008E7
:10015000B10F0008B10F0008B10F000879230008A3
:10016000B10F0008B10F00080000000000000000FF
:10017000000000000000000000000000000000007F
:1001800000000000B10F00080000000000000000A7
:08019000B10F0008B10F0008D7
:1001A00010B5054C237833B9044B13B10448AFF3B1
:1001B00000800123237010BDE0010020000000003A
:1001C000D8A8000808B5034B1BB103490348AFF397
:1001D000008008BD00000000E4010020D8A800084D
:1001E00081F0004102E000BF83F0004330B54FEAE8
:1001F00041044FEA430594EA050F08BF90EA020F55
:100200001FBF54EA000C55EA020C7FEA645C7FEAE7
:10021000655C00F0E2804FEA5454D4EB5555B8BF0A
:100220006D420CDD2C4480EA020281EA030382EA7B
:10023000000083EA010180EA020281EA0303362D0D
:1002400088BF30BD11F0004F4FEA01314FF4801CE0
:100250004CEA113102D0404261EB410113F0004FF2
:100260004FEA03334CEA133302D0524263EB4303A9
:1002700094EA050F00F0A780A4F10104D5F1200E47
:100280000DDB02FA0EFC22FA05F2801841F10001A2
:1002900003FA0EF2801843FA05F359410EE0A5F176
:1002A00020050EF1200E012A03FA0EFC28BF4CF0A7
:1002B000020C43FA05F3C01851EBE37101F000455D
:1002C00007D54FF0000EDCF1000C7EEB00006EEB6A
:1002D0000101B1F5801F1BD3B1F5001F0CD34908F4
:1002E0005FEA30004FEA3C0C04F101044FEA44524B
:1002F00012F5800F80F09A80BCF1004F08BF5FEAD2
:10030000500C50F1000041EB045141EA050130BDB1
:100310005FEA4C0C404141EB010111F4801FA4F154
:100320000104E9D191F0000F04BF01460020B1FAA9
:1003300081F308BF2033A3F10B03B3F120020CDAE1
:100340000C3208DD02F1140CC2F10C0201FA0CF0BF
:1003500021FA02F10CE002F11402D8BFC2F1200C24
:1003600001FA02F120FA0CFCDCBF41EA0C019040DA
:10037000E41AA2BF01EB0451294330BD6FEA040423
:100380001F3C1CDA0C340EDC04F11404C4F120020E
:1003900020FA04F001FA02F340EA030021FA04F320
:1003A00045EA030130BDC4F10C04C4F1200220FA77
:1003B00002F001FA04F340EA0300294630BD21FAB5
:1003C00004F0294630BD94F0000F83F4801306BF7B
:1003D00081F480110134013D4EE77FEA645C18BF6F
:1003E0007FEA655C29D094EA050F08BF90EA020F06
:1003F00005D054EA000C04BF1946104630BD91EAFE
:10040000030F1EBF0021002030BD5FEA545C05D100
:100410004000494128BF41F0004130BD14F580043F
:100420003CBF01F5801130BD01F0004545F0FE41B3
:1004300041F470014FF0000030BD7FEA645C1ABFE8
:10044000194610467FEA655C1CBF0B46024650EA1F
:10045000013406BF52EA033591EA030F41F400214B
:1004600030BD00BF90F0000F04BF0021704730B5D1
:100470004FF4806404F132044FF000054FF00001A6
:1004800050E700BF90F0000F04BF0021704730B567
:100490004FF4806404F1320410F0004548BF40423C
:1004A0004FF000013EE700BF42004FEAE2014FEA91
:1004B00031014FEA02701FBF12F07F4393F07F4F6C
:1004C00081F06051704732F07F4208BF704793F06F
:1004D0007F4F04BF41F40021704730B54FF4607482
:1004E00001F0004521F000411CE700BF50EA010285
:1004F00008BF704730B54FF000050AE050EA01022E
:1005000008BF704730B511F0004502D5404261EB9D
:1005100041014FF4806404F132045FEA915C3FF4DE
:10052000D8AE4FF003025FEADC0C18BF03325FEA7B
:10053000DC0C18BF033202EBDC02C2F1200300FA2C
:1005400003FC20FA02F001FA03FE40EA0E0021FA51
:1005500002F11444BDE600BF70B54FF0FF0C4CF43F
:10056000E06C1CEA11541DBF1CEA135594EA0C0FF1
:1005700095EA0C0F00F0DEF82C4481EA030621EA2C
:100580004C5123EA4C5350EA013518BF52EA033567
:1005900041F4801143F4801338D0A0FB02CE4FF019
:1005A0000005E1FB02E506F00042E0FB03E54FF049
:1005B0000006E1FB03569CF0000F18BF4EF0010E41
:1005C000A4F1FF04B6F5007F64F5407404D25FEA3D
:1005D0004E0E6D4146EB060642EAC62141EA5551F0
:1005E0004FEAC52040EA5E504FEACE2EB4F1FD0C32
:1005F00088BFBCF5E06F1ED8BEF1004F08BF5FEAB0
:10060000500E50F1000041EB045170BD06F0004661
:1006100046EA010140EA020081EA0301B4EB5C040E
:10062000C2BFD4EB0C0541EA045170BD41F4801106
:100630004FF0000E013C00F3AB8014F1360FDEBF2B
:10064000002001F0004170BDC4F10004203C35DA07
:100650000C341BDC04F11404C4F1200500FA05F38A
:1006600020FA04F001FA05F240EA020001F000422B
:1006700021F0004110EBD37021FA04F642EB0601A1
:100680005EEA430E08BF20EAD37070BDC4F10C04CB
:10069000C4F1200500FA04F320FA05F001FA04F28F
:1006A00040EA020001F0004110EBD37041F100017B
:1006B0005EEA430E08BF20EAD37070BDC4F1200586
:1006C00000FA05F24EEA020E20FA04F301FA05F2EE
:1006D00043EA020321FA04F001F0004121FA04F296
:1006E00020EA020000EBD3705EEA430E08BF20EA66
:1006F000D37070BD94F0000F0FD101F000464000A0
:1007000041EB010111F4801F08BF013CF7D041EA21
:10071000060195F0000F18BF704703F00046520025
:1007200043EB030313F4801F08BF013DF7D043EAF6
:100730000603704794EA0C0F0CEA135518BF95EAAC
:100740000C0F0CD050EA410618BF52EA4306D1D133
:1007500081EA030101F000414FF0000070BD50EA52
:10076000410606BF1046194652EA430619D094EADC
:100770000C0F02D150EA013613D195EA0C0F05D1C6
:1007800052EA03361CBF104619460AD181EA03011A
:1007900001F0004141F0FE4141F470014FF00000D2
:1007A00070BD41F0FE4141F4780170BD70B54FF06D
:1007B000FF0C4CF4E06C1CEA11541DBF1CEA1355ED
:1007C00094EA0C0F95EA0C0F00F0A7F8A4EB0504CF
:1007D00081EA030E52EA03354FEA013100F08880C6
:1007E0004FEA03334FF0805545EA131343EA12638F
:1007F0004FEA022245EA111545EA10654FEA002644
:100800000EF000419D4208BF964244F1FD0404F5FC
:10081000407402D25B084FEA3202B61A65EB030558
:100820005B084FEA32024FF480104FF4002CB6EB15
:10083000020E75EB030E22BFB61A754640EA0C0095
:100840005B084FEA3202B6EB020E75EB030E22BFD5
:10085000B61A754640EA5C005B084FEA3202B6EB16
:10086000020E75EB030E22BFB61A754640EA9C00D5
:100870005B084FEA3202B6EB020E75EB030E22BFA5
:10088000B61A754640EADC0055EA060E18D04FEA63
:10089000051545EA16754FEA06164FEAC30343EA03
:1008A00052734FEAC2025FEA1C1CC0D111F4801FD0
:1008B0000BD141EA00014FF000004FF0004CB6E7C9
:1008C00011F4801F04BF01430020B4F1FD0C88BF68
:1008D000BCF5E06F3FF6AFAEB5EB030C04BFB6EB73
:1008E000020C5FEA500C50F1000041EB045170BD66
:1008F0000EF0004E4EEA113114EB5C04C2BFD4EB93
:100900000C0541EA045170BD41F480114FF0000E16
:10091000013C90E645EA060E8DE60CEA135594EA92
:100920000C0F08BF95EA0C0F3FF43BAF94EA0C0F95
:100930000AD150EA01347FF434AF95EA0C0F7FF40A
:1009400025AF104619462CE795EA0C0F06D152EA5E
:1009500003353FF4FDAE1046194622E750EA410642
:1009600018BF52EA43067FF4C5AE50EA41047FF453
:100970000DAF52EA43057FF4EBAE12E74FF0FF3CB8
:1009800006E000BF4FF0010C02E000BF4FF0010C89
:100990004DF804CD4FEA410C7FEA6C5C4FEA430C02
:1009A00018BF7FEA6C5C1BD001B050EA410C0CBF51
:1009B00052EA430C91EA030F02BF90EA020F0020B3
:1009C000704710F1000F91EA030F58BF994208BF1A
:1009D00090422CBFD8176FEAE37040F001007047D7
:1009E0004FEA410C7FEA6C5C02D150EA013C07D12E
:1009F0004FEA430C7FEA6C5CD6D152EA033CD3D079
:100A00005DF8040B704700BF8446104662468C4672
:100A10001946634600E000BF01B5FFF7B7FF0028A5
:100A200048BF10F1000F01BD4DF808EDFFF7F4FFCE
:100A30000CBF012000205DF808FB00BF4DF808ED59
:100A4000FFF7EAFF34BF012000205DF808FB00BF7C
:100A50004DF808EDFFF7E0FF94BF012000205DF89E
:100A600008FB00BF4DF808EDFFF7CEFF94BF012053
:100A700000205DF808FB00BF4DF808EDFFF7C4FF4C
:100A800034BF012000205DF808FB00BF4FEA410C95
:100A90007FEA6C5C02D150EA013C0AD14FEA430C78
:100AA0007FEA6C5C02D152EA033C02D14FF00000B5
:100AB00070474FF0010070474FEA410212F50012F3
:100AC00015D211D56FF47873B3EB625212D94FEA95
:100AD000C12343F0004343EA505311F0004F23FA7F
:100AE00002F018BF404270474FF00000704750EAD4
:100AF000013005D111F0004008BF6FF00040704791
:100B00004FF00000704700BF7BB972B90029BEBF2B
:100B100000204FF0004106E008BF00281CBF6FF026
:100B200000414FF0FF3000F0BDB9ADF1080C6DE9A8
:100B300004CE002909DB002B1ADB00F04DF8DDF8AC
:100B400004E0DDE9022304B07047404261EB41015B
:100B5000002B1BDB00F040F8DDF804E0DDE90223A8
:100B600004B0404261EB4101524263EB43037047E2
:100B7000524263EB430300F02FF8DDF804E0DDE9B7
:100B8000022304B0404261EB41017047524263EBE3
:100B9000430300F021F8DDF804E0DDE9022304B0AE
:100BA000524263EB4303704753B94AB9002908BF67
:100BB00000281CBF4FF0FF314FF0FF3000F072B93A
:100BC000ADF1080C6DE904CE00F006F8DDF804E0A4
:100BD000DDE9022304B070472DE9F047089E044682
:100BE0008846002B4BD18A42154667D9B2FA82F269
:100BF0004AB1C2F1200701FA02F320FA07F7954043
:100C000047EA030894404FEA154E230CB8FBFEF761
:100C10001FFA85FC0EFB178843EA084307FB0CF11B
:100C2000994209D9EB1807F1FF3080F01B819942F6
:100C300040F21881023F2B445B1AA4B2B3FBFEF0D2
:100C40000EFB103344EA034400FB0CFCA44509D915
:100C50002C1900F1FF3380F00781A44540F2048194
:100C600002382C4440EA0740A4EB0C0400271EB1D4
:100C7000D4400023C6E900433946BDE8F0878B42E3
:100C800009D9002E00F0EB800027C6E900013846A4
:100C90003946BDE8F087B3FA83F7002F47D18B427E
:100CA00002D3824200F2FA80841A61EB030301202E
:100CB0009846002EE0D0C6E90048DDE702B9FFDE25
:100CC000B2FA82F2002A40F08F80491B4FEA154E9B
:100CD0001FFA85F80127B1FBFEFC230C0EFB1C114B
:100CE00043EA014308FB0CF1994207D9EB180CF1D8
:100CF000FF3002D2994200F2CD808446591AA3B245
:100D0000B1FBFEF00EFB101443EA044408FB00F8AC
:100D1000A04507D92C1900F1FF3302D2A04500F2FB
:100D2000B6801846A4EB080440EA0C409FE7C7F1E0
:100D3000200CBB4022FA0CFE4EEA030E01FA07F427
:100D400020FA0CF521FA0CF34FEA1E482543B3FBB9
:100D5000F8F92C0C08FB19331FFA8EFA44EA034306
:100D600009FB0AF49C4202FA07F200FA07F10BD9D8
:100D70001EEB030309F1FF3080F087809C4240F2B4
:100D80008480A9F1020973441B1BADB2B3FBF8F0D8
:100D900008FB103345EA034400FB0AFAA24508D9D0
:100DA0001EEB040400F1FF336BD2A24569D902386F
:100DB000744440EA0940A0FB0289A4EB0A044C45B4
:100DC000C2464B4654D351D0002E69D0B1EB0A0530
:100DD00064EB030404FA0CFCFD40FC404CEA0505FE
:100DE000C6E90054002747E7C2F1200320FA03F7C1
:100DF000954001FA02F021FA03F34FEA154E384309
:100E0000010CB3FBFEF71FFA85F80EFB173341EA1E
:100E1000034107FB08F38B4204FA02F407D969186F
:100E200007F1FF3C2FD28B422DD9023F2944CB1A28
:100E300081B2B3FBFEF00EFB103341EA034100FB2D
:100E400008F38B4207D9691800F1FF3C17D28B4297
:100E500015D902382944C91A40EA07473BE7374603
:100E6000304609E70746E7E61846FBE64145ABD2C0
:100E7000B8EB020A69EB0E0201381346A4E760469C
:100E8000E9E7184695E76746D1E781467CE70238EF
:100E90002C4447E7ACF1020C2B442FE7384608E717
:100EA0003746E9E6704700BF034613F8012B002AD6
:100EB000FBD1181A01387047000000000000000044
:100EC00001F0FF01102A2BDB10F0070F08D010F8FB
:100ED000013B013A8B422DD010F0070F42B3F6D1FF
:100EE000F0B441EA012141EA014122F007047FF018
:100EF00000070023F0E80256083C85EA010586EA6F
:100F0000010685FA47F5A3FA87F586FA47F6A5FAAA
:100F100087F68EB9EED1F0BC01F0FF0102F00702B6
:100F200032B110F8013B013A83EA010313B1F8D161
:100F30000020704701387047002D06BF3546033842
:100F4000073815F0010F07D1013015F4807F02BF7B
:100F5000013015F4C03F0130F0BC0138704700BFCC
:100F6000DFF834D0002103E00C4B5B5843500431D0
:100F70000B480C4B42189A42F6D30B4A02E000236E
:100F800042F8043B094B9A42F9D301F0FDF906F00F
:100F900095FF01F053F8704700000220C8AE00082A
:100FA00000000020E0010020E00100206407002094
:100FB000FEE770B50D461646002404E0AFF300804E
:100FC000287001340135B442F8DB304670BD70B58D
:100FD0001646002405E04D1C0878AFF3008001346C
:100FE0002946B442F7DB304670BD000008B5034621
:100FF0000B4A126842B10A4A106803446A46934297
:1010000006D8074A136008BD054A06491160F2E791
:1010100006F04EFF0C2303604FF0FF30F3E700BFF4
:10102000FC010020680700204FF0FF3070474FF4AC
:1010300000534B600020704701207047002070472C
:1010400000B583B00023ADF8043002A901F8040D07
:101050004FF6FF730122034803F0A4FF03B05DF8CD
:1010600004FB00BF9405002038B50546002407E0C6
:101070004FF6FF730122054803F094FF0134A4B238
:1010800029192B5D002BF3D138BD00BF940500203A
:1010900038B505460C464FF6FF730A46014603482D
:1010A00003F0F1FF013C00232B5538BD94050020CF
:1010B00008B50A4B0A4A1A60586000229A60DA6042
:1010C0001A610C2159619A61DA61184603F03BFFFD
:1010D00000B908BD01F01CF8FBE700BF9405002033
:1010E0000044004000B583B0417800238DF80630FD
:1010F000022302E051400133DBB2C25C002AF9D185
:101100000A090D4B9A5C8DF8042001F00F015B5C1D
:101110008DF80530FFF7A8FF2A20FFF791FF01A8FF
:10112000FFF7A2FF0D20FFF78BFF0A20FFF788FFD4
:1011300003B05DF804FB00BFF0A800087047000092
:10114000F8B504467E4B00255D759D74DD741D75F4
:101150007C4E4FF448713046FFF79AFF31467A488B
:1011600007F034FB2B4610E0EA1C76498A5C522AD1
:1011700020D06A1D73498A5C002A00F0D3800133B5
:101180009BB2B3F5487F00F2CD80B3F5487F80F085
:10119000C9801D466B4AD25C242AEAD15A1C69498F
:1011A0008A5C472AE5D19A1C8A5C4E2ADCD0502AF8
:1011B000DFD1D9E72A1D8A5C4D2ADAD16A1D8A5C03
:1011C000432AD6D100273E4637E000221046C118F8
:1011D0000131DFF870C11CF801102E290BD051B17C
:1011E0002C2908D002EB820C4FEA4C020A44303A18
:1011F000013080B2EBE7554BA3FB02135B0B0833C6
:10120000DBB2DFF83CC18CF812305149A1FB02E09F
:101210004009A1FB00E149094FF0640E0EFB1101EA
:101220008CF813100EFB10218CF81410172B02D918
:10123000183B8CF812300137BFB20B2E72D87B19D5
:10124000404AD25C002A6DD02C2AF4D10136B6B2C5
:10125000012EBAD0022E09D0032E29D0042E35D16A
:101260000133384AD25C364B5A74E4E70133354ACD
:10127000D35C412B03D1324B01225A75DBE7304B53
:1012800000225A75D7E7013189B2CA180132DFF856
:10129000B4C01CF802202C2A0DD062B12E2AF2D044
:1012A00000EB80004FEA400C6244A2F13000EAE714
:1012B00000200146E9E7FFF7D5F81FA3D3E9002393
:1012C000FFF774FA1E4BC3E90201B4E7052E26D0DE
:1012D000062EB0D101331B4AD25C194B1A74AAE70F
:1012E00092B12E2A06D000EB80004FEA400C6244F7
:1012F000A2F13000013189B2CA180132DFF844C0CE
:101300001CF802202C2AEBD1FFF7ACF80AA3D3E992
:101310000023FFF74BFA0A4BC3E900018BE70020DB
:101320000146E9E72546064E0FCE0FC596E80300B5
:1013300085E803002046F8BD0000000080842E41AF
:10134000D80500200402002018A900085917B7D1B9
:101350001F85EB5100B587B006AA02F8011D4FF4B6
:10136000803302930123019300920246EC2103484B
:1013700001F0E0FE07B05DF804FB00BF240600208A
:1013800000B585B04FF4803302930223019300929D
:1013900001230A460146034801F080FF05B05DF8CD
:1013A00004FB00BF2406002008B50A460146EC20D5
:1013B000FFF7E6FF08BD08B50A460146EC20FFF737
:1013C000DFFF08BD10B5074C21468820FFF7ECFF72
:1013D000A11C8A20FFF7EFFF211D8C20FFF7EBFFF8
:1013E00010BD00BFF005002010B5154C21468E2021
:1013F000FFF7DAFFA11C9020FFF7DDFF211D9220EF
:10140000FFF7D9FFA11D9420FFF7D5FF04F10801D4
:101410009620FFF7D0FF04F10A019820FFF7CBFFD9
:1014200004F10C019A20FFF7C6FF04F10E019C2085
:10143000FFF7C1FF04F110019E20FFF7BCFF10BDB4
:10144000F605002010B50C460A460146EC20FFF7D1
:1014500097FF2288130A43EA0223238010BD00006D
:1014600010B586B00C4606AA002302F8013D4FF4E1
:10147000803302930123019300920246EC21044839
:1014800001F00CFF9DF81730237006B010BD00BFAF
:101490002406002000B587B006AA002302F8013D0B
:1014A0004FF4803302930123019300920246EC2112
:1014B000034801F0F3FE9DF8170007B05DF804FB48
:1014C0002406002008B5F320FFF7E4FF00F0090030
:1014D00008BD000038B5144C2146A120FFF7C0FF1D
:1014E000A11CE120FFF767FF211DE320FFF7B8FFF4
:1014F000E420FFF7CFFF0501E520FFF7CBFF00F069
:101500000F002843E080E620FFF7C4FF0501E52037
:10151000FFF7C0FFC0F3071028432081E720FFF743
:10152000B9FFA07238BD00BF0806002008B5FFF75C
:1015300049FFFFF759FFFFF7CDFF08BD10B504467F
:10154000F520FFF7A7FF00F01F0024F01F0149B2AC
:101550000143C9B2F520FFF7FDFE10BD10B50446EA
:10156000F520FFF797FF00F0E30104F01C0421438E
:10157000F520FFF7EFFE10BD10B50446F420FFF78D
:1015800089FF00F01F0024F01F0149B20143C9B2D6
:10159000F420FFF7DFFE10BD10B50446F420FFF77E
:1015A00079FF00F0E30104F01C042143F420FFF76D
:1015B000D1FE10BD10B50446F220FFF76BFF00F01E
:1015C000F80104F007042143F220FFF7C3FEF420E2
:1015D000FFF760FF0146F420FFF7BCFE10BD10B519
:1015E0000446F420FFF756FF00F0FC0104F003046A
:1015F0002143F420FFF7AEFE10BD000000B585B01A
:101600004FF48033029303230193009201230A468F
:101610000146034801F042FE05B05DF804FB00BF3F
:101620002406002010B50C460A460146EC20FFF7C0
:10163000E5FF2368C3F3074203F47F410A431B0419
:1016400003F47F031343236010BD0000F8B5074681
:101650000E4615461C46D020FFF71CFF204B187085
:10166000602800D0F8BD5F709E70DD701C719DF821
:1016700018205A719DF81C209A71B621E020FFF7BE
:1016800069FEFFF71FFF10F0010FFAD1FFF74EFFC1
:10169000134C6078FFF752FFA078FFF75FFFE07808
:1016A000FFF76AFF2079FFF777FF6079FFF782FF86
:1016B000F420FFF7EFFEA060F220FFF7EBFE000240
:1016C000A060237B10F4E06018BF012003F0FC034E
:1016D00060F382032373A079FFF781FFC2E700BFA5
:1016E0001406002010B582B002A9002341F8043D81
:1016F000FA20FFF797FF019AB2F5000F24D01448A3
:1017000003885900C1EBD214B0F9021001FB04F1B7
:10171000C3EB122303FB03F31A0BB0F9043003FBF2
:1017200002F39B0B03EBD1230A4A136003EB830301
:1017300080331B1207EE903AF8EEE77A9FED067AB7
:1017400087EE870A02B010BD9FED040AFAE700BFDA
:10175000F0050020240500200000C84200FF7F475C
:101760002DE9F04F83B002AC002344F8043DFFF7AD
:10177000B9FF2146F720FFF755FF019BB3F5000F96
:1017800000F0F3804FEA131E7B4B1A68D317B2F5B3
:10179000FA3A43F1FF3B0AFB0BF1AAFB0A4505EBC2
:1017A0004105DFF8D8C1BCF910804FEAE87904FBA5
:1017B00009F108FB0511A4FB08898944BCF90E0056
:1017C000C11700FB0BF60AFB0166A0FB0A013144BE
:1017D0004F0447EAD037460416EB080247EB0903EB
:1017E000BCF90C8000204FEAC801161843EB010732
:1017F000BCF90A20D31704FB03F102FB0511A4FB7B
:1018000002450D444FEA142848EA05684FEA2529A5
:10181000BCF90810CA1701FB0BF30AFB0235A1FB48
:101820000A232B441D0345EA1255140318EB040048
:1018300049EB050110F1000841F50049BCF806200C
:10184000A8FB024502FB09556A10EB1752EA030197
:1018500000F08E80CEF5801E4FEA5E014FEACE701A
:10186000801B61EB070180468946041841EB0105A6
:1018700014EB000A45EB010B4FEA8B1141EA9A6128
:101880004FEA8A101AEB00064BEB0107B90041EA58
:101890009671B00010EB080441EB0905A90041EA7C
:1018A0009471A00010EB080041EB0901FFF72CF93F
:1018B000324CB4F91660F717420B42EAC1424B139F
:1018C00006FB03F502FB0755A6FB02672F4402FB4C
:1018D00007F503FB0655A2FB06232B44560E46EAEA
:1018E000C3165F16B4F914804FEAE87908FB01F3D8
:1018F00000FB0933A8FB008999444FEAD84242EA29
:1019000049324FEAE94380197941851841EB0306D2
:101910002A0A42EA06623312B4F91240E517290195
:1019200041EA14712001151843EB0106280A40EA28
:1019300006604FF47A7404FB00F405F0FF02002304
:101940000F4DA2FB050105FB03110E4A0023FFF713
:10195000DBF8204407EE900AF8EE677A9FED0A7AEA
:1019600087EE870A03B0BDE8F08F9FED080AF9E71C
:101970009FED070AF6E700BF24050020F0050020D0
:10198000E1F50500A08601000000C84200FF7F4786
:101990000000000010B582B002AC002324F8023D24
:1019A000FFF7A0FE2146FD20FFF74CFDBDF9061014
:1019B000234B1A68A2F59632224B03EA8133224860
:1019C000B0F91E10A3EB0151B0F9203002FB131344
:1019D00003F58043D91390F9223002FB03F39C12E4
:1019E000037F02FB03F3DB1203F5004303FB04F365
:1019F0009B1203F50012B0F91A3003FB02F303F552
:101A000000539B1303FB01F3DA1302FB02F2D21122
:101A1000017E01FB02F2A3EB221323EAE373B3F18D
:101A2000C85FA8BF4FF0C8531B1300EE103AB8EEC2
:101A3000C00ADFED067A20EE270A02B010BD00BF13
:101A40002405002000C0FF3FF00500200000803A80
:101A500008B50948094B0360094B436000238360C4
:101A6000C3604FF48042026143618361C3610362DA
:101A700001F086FA08BD00BF240600200054004093
:101A8000A086010008B50748074B036000234360A8
:101A90007F228260FF22C26003614361836102F0A2
:101AA000E0FE08BDFC0600200028004008B50848FC
:101AB000084B036042F20F734360002383604FF4CE
:101AC0007A62C2600361836103F0A2F808BD00BFBF
:101AD000780600200044014008B50848084B036020
:101AE0004FF41653436000238360C36003610C22EC
:101AF00042618361C36103F026FA08BD1C07002020
:101B00000014014008B50848084B03604FF4165311
:101B1000436000238360C36003610C2242618361E0
:101B2000C36103F010FA08BD940500200044004092
:101B300070B58AB00024059406940794089409941B
:101B40000094274B1A6B42F080021A631A6B02F062
:101B500080020092009A01941A6B42F001021A630B
:101B60001A6B02F001020192019A02941A6B42F080
:101B700008021A631A6B02F008020292029A039496
:101B80001A6B42F004021A631A6B02F00402039209
:101B9000039A04941A6B42F002021A631B6B03F05F
:101BA00002030493049B0F4D01224FF40041284689
:101BB00000F0AEFD012605960B4B0693079405A990
:101BC0000A4800F0D3FC4FF40043059306960794AF
:101BD000089405A9284600F0C9FC0AB070BD00BFF2
:101BE00000380240000C02400000211000000240BA
:101BF0002DE9F84F2DED028B57EC106B55EC124B85
:101C000053EC112B51EC130BFEF7EEFA4AA3D3E978
:101C10000023FEF7A1FC82468B4632463B46204617
:101C20002946FEF7E1FA44A3D3E90023FEF794FC2A
:101C30000022454BFEF790FC41EC100B03F018FC22
:101C40009FED3B8BB0EE481AF0EE681A03F074FC7F
:101C500059EC108B38A3D3E9002330463946FEF700
:101C60007BFC41EC100B03F0A3FB57EC106B32A391
:101C7000D3E9002320462946FEF76EFC41EC100B09
:101C800003F096FB53EC102B30463946FEF764FC0C
:101C900004460D4600222C4B50465946FEF75CFC8C
:101CA00041EC100B03F0E4FBB0EE481AF0EE681ABA
:101CB00003F042FC53EC102B20462946FEF74CFC67
:101CC00002460B4640464946FEF790FA04460D464A
:101CD00045EC104B03F0CCFDB0EE408AF0EE608A8C
:101CE00022462B4600201949FEF77EFA41EC100BE4
:101CF00003F0BEFDB0EE401AF0EE601AB0EE480AF6
:101D0000F0EE680A03F014FC51EC100B10EE102AF0
:101D10000B46FEF76BFA0AA3D3E90023FEF71CFC7F
:101D200041EC100BBDEC028BBDE8F88FAFF30080E7
:101D30000000000000000040399D52A246DF913FA4
:101D40000000000000DFB8400000E03F0000F03F6E
:101D50002DE9F04395B0804E6846FFF7F1F935461E
:101D60006C460FCC0FC594E8030085E803007B4C5C
:101D700096ED003B96ED022B94ED061B94ED080BBF
:101D8000FFF736FF51EC100B84ED020B6EA3D3E985
:101D90000023FEF753FE18B100200021C4E9020120
:101DA00000226F4B6D49D1E90201FEF765FE20B1BB
:101DB0006A4B00200021C3E90201684CD4E90267A4
:101DC00063A3D3E9002330463946FEF7C5FBC4E9D7
:101DD0001001D4E9002330463946FEF707FAC4E97A
:101DE00000015D4BD3E90001C4E90601D3E90223F8
:101DF000C4E90823FFF776FC10EE100AFEF754FB47
:101E0000C4E91201FFF7ACFCDFED567AC0EE277A89
:101E100017EE900AFEF748FBC4E91401FFF7BAFD7C
:101E200010EE100AFEF740FBC4E916014E4D0022E9
:101E300004F12801284602F07FFD002204F13C0154
:101E4000284602F0A4FD94F8280094F82930C3EB4A
:101E500003139A004FF4616303FB002394F82A00F4
:101E60001844FEF70FFBD4E9006702460B463046E4
:101E70003946FEF79BFC36A3D3E90023FEF76CFB43
:101E800080468946C4E90489002107912E2208A8CA
:101E900006F038F894F86030052B50D8DFE803F0EE
:101EA00003242D363F472D4BD3E912232F4907A892
:101EB00006F0A4FC82B207A92D4803F058F9274A7E
:101EC00092F860300133DBB282F86030052B03D921
:101ED0001346002283F860204FF40041254800F0AB
:101EE0001DFC15B0BDE8F0831C4BD3E91423224937
:101EF00007A806F083FC82B2DDE7184BD3E916236E
:101F00001E4907A806F07AFC82B2D4E7134BD3E946
:101F100010231B4907A806F071FC82B2CBE74246AA
:101F20004B46184907A806F069FC82B2C3E732465F
:101F30003B46154907A806F061FC82B2BBE70022C8
:101F4000B9E700BFAFF300807B14AE47E17A843F6E
:101F5000CDCCCCCCCCCC0C40D80500202805002022
:101F60000000344000007A44FC06002020A900084C
:101F70001C070020000C024034A9000848A90008F2
:101F80005CA900086CA9000880A9000830B59BB0C6
:101F9000302200210EA805F0B5FF002409940A9410
:101FA0000B940C940D940394049405940694079454
:101FB000089401941F4B1A6C42F080521A641B6CF7
:101FC00003F080530193019B02941B4B1A6842F467
:101FD00040421A601B6803F440430293029B0923AA
:101FE0000E934FF480330F9301231393022514951E
:101FF0004FF48003159304231693642217921895C7
:1020000019930EA802F006F80F2309930A950B9472
:102010004FF480530C930D94032109A802F05CFA4D
:1020200003954FF40073079303A802F02BFB1BB03A
:1020300030BD00BF003802400070004000B589B0DC
:1020400000F0D4F9FFF7A2FFFFF772FDFFF75AFD8A
:10205000FFF7FEFCFFF716FDFFF728FDFFF73CFD3D
:10206000FFF766FD244802F0B3FCFFF74BFD31207B
:10207000FEF7E6FF642000F0E5F94FF41650FFF795
:1020800017F8642000F0DEF91C48FFF72BF86420F5
:1020900000F0D8F9642000F0D5F94FF4E130FFF7F3
:1020A00007F8642000F0CEF91548FFF71BF8154833
:1020B000FFF718F8FFF742F8032301930123009379
:1020C0000823602219460020FFF7C0FA0E4E02A82E
:1020D000FFF736F8354602AC0FCC0FC594E8030085
:1020E00085E80300D6E90001084BC3E90601D6E9FB
:1020F0000201C3E90801FEE77806002094A9000860
:10210000A4A90008B0A90008D805002028050020CF
:102110007047000082B0002100910B4B5A6C42F4D2
:1021200080425A645A6C02F480420092009A0191F3
:102130001A6C42F080521A641B6C03F080530193B6
:10214000019B02B0704700BF0038024030B589B033
:1021500000230393049305930693079302681D4B92
:102160009A4201D009B030BD002401941A4D2B6B66
:1021700043F002032B632B6B03F002030193019BDB
:10218000C02303931223049301230593032306938F
:102190000423079303A9114800F0E8F902942B6C7B
:1021A00043F400132B642B6C03F400130293029B83
:1021B000224621461F2000F06BF91F2000F09CF9F9
:1021C00022462146202000F063F9202000F094F9F7
:1021D000C8E700BF0054004000380240000402403D
:1021E0000268044B9A4200D07047034B01221A60E8
:1021F000FAE700BF002800403C0E474202680E4B41
:102200009A4200D0704700B583B00021019103F5D8
:1022100074435A6C42F400325A645B6C03F400332A
:102220000193019B0A46192000F032F9192000F0B1
:1022300063F903B05DF804FB0044014010B58AB0B7
:1022400000230593069307930893099303682F4A85
:10225000934204D02E4A93422CD00AB010BD0024E1
:1022600001942C4B1A6C42F400321A641A6C02F47A
:1022700000320192019A02941A6B42F001021A6331
:102280001B6B03F001030293029B0C2305930223B3
:102290000693032308930723099305A91E4800F01A
:1022A00065F922462146262000F0F2F8262000F0AB
:1022B00023F9D2E700240394164B5A6C42F0200213
:1022C0005A645A6C02F020020392039A04941A6B27
:1022D00042F004021A631B6B03F004030493049B93
:1022E000C02305930223069303230893082309932D
:1022F00005A90A4800F03AF922462146472000F095
:10230000C7F8472000F0F8F8A7E700BF00440040F6
:102310000014014000380240000002400008024062
:102320007047FEE7FEE7FEE7FEE77047704770473D
:1023300008B500F075F808BD08B5024802F05DFB6D
:1023400008BD00BF7806002008B5024801F03AFD3C
:1023500008BD00BF2406002008B5024801F0F8FDC2
:1023600008BD00BF2406002008B5024802F082FF25
:1023700008BD00BF9405002008B5024802F07AFFAE
:1023800008BD00BF1C070020054BD3F8882042F48D
:102390007002C3F888204FF000629A60704700BF57
:1023A00000ED00E010B504460E4B18784FF47A7338
:1023B000B3FBF0F30C4A1068B0FBF3F000F0AAF89E
:1023C00068B90F2C01D901200AE0002221464FF004
:1023D000FF3000F05DF8034B5C60002000E001205E
:1023E00010BD00BF040000200000002008B50B4B0A
:1023F0001A6842F400721A601A6842F480621A6025
:102400001A6842F480721A60032000F02FF800204E
:10241000FFF7C8FFFFF77EFE002008BD003C02402A
:10242000034A1168034B1B780B441360704700BFCD
:102430005C07002004000020014B1868704700BFB3
:102440005C07002038B50446FFF7F6FF0546B4F1F7
:10245000FF3F02D0044B1B781C44FFF7EDFF401BED
:10246000A042FAD338BD00BF04000020074AD36859
:1024700023F4E0631B041B0C000200F4E06018432B
:1024800040F0BF6040F40030D060704700ED00E0E5
:1024900030B4174BDB68C3F30223C3F10704042CE9
:1024A00028BF04241D1D062D18D9033B4FF0FF350E
:1024B00005FA04F421EA0401994005FA03F322EA3B
:1024C0000303194300280BDB0901C9B200F1604086
:1024D00000F5614080F8001330BC70470023E5E749
:1024E00000F00F000901C9B2024B1954F4E700BF14
:1024F00000ED00E014ED00E0002807DB00F01F0213
:10250000400901239340024A42F82030704700BF3F
:1025100000E100E00138B0F1807F0AD2064B58603C
:10252000064AF02182F823100020986007221A60E2
:1025300070470120704700BF10E000E000ED00E0B0
:1025400090F83530DBB2022B03D0802343650120A5
:102550007047052380F835300268136823F00103C3
:1025600013600020704790F83500704700230F2B50
:1025700000F2C580F0B583B039E0042200E000220B
:10258000AA403A4302345E4D45F824205D4A14685F
:10259000F24302EA04054F6817F4803F01D046EA8F
:1025A0000405584C2560646802EA04054F6817F476
:1025B000003F01D046EA0405524C6560A46802EA77
:1025C00004054F6817F4801F01D046EA04054D4CFE
:1025D000A560E46822404D6815F4001F01D046EA6A
:1025E0000402484CE26001330F2B00F28680012286
:1025F0009A400C6804EA0206B242F4D14C68651EA7
:10260000012D03D9112C01D0122C12D185685F0045
:102610000324BC4025EA0405CC68BC402C438460FC
:10262000456825EA02054C68C4F300129A402A4323
:102630004260C4685F000322BA40D24314408D68F0
:10264000BD402543C5604C68022C01D0122C13D12B
:10265000DD08083550F825E003F007044FEA840C44
:102660000F2404FA0CF42EEA040E0C6904FA0CF49C
:1026700044EA0E0440F82540046822404C6804F007
:102680000304BC40224302604A6812F0805FAAD073
:10269000002201921C4A546C44F480445464526CED
:1026A00002F480420192019A9C08A51C144A52F837
:1026B000257003F0030295000F22AA4027EA0207C3
:1026C000124A90423FF45BAF02F5806290420ED016
:1026D00002F5806290420CD002F5806290420AD0EE
:1026E00002F5806290423FF448AF072248E701229A
:1026F00046E7022244E7032242E703B0F0BD7047F9
:1027000000380140003C0140003802400000024017
:1027100012B909048161704781617047436931EAE8
:10272000030301D081617047090481617047036D23
:102730009BB9C36C012B08D0836CC3F307230268D9
:102740001361036D013303657047836C0268DBB26C
:102750001361036D023303657047036D012B03D0D2
:10276000036D022B08D07047836C0268DBB21361E3
:10277000036D01330365704790F83D30DBB2222BC7
:1027800010D090F83D30DBB2212BECD1426A0368C7
:1027900012781A61436A01334362438D013B9BB255
:1027A0004385E0E70268136843F480731360704761
:1027B00090F83E30DBB2402B0AD00369B3F5804F6E
:1027C00015D0036D002B34D0036D012B3BD0704727
:1027D000036D2BB9436C026803F0FE03136170476D
:1027E000436C026843F00103DBB21361704790F859
:1027F0003D30DBB2212B0FD0436C026843F0010364
:10280000DBB21361436B6BB1DB6B5BB10268536886
:1028100043F4006353607047436C026803F0FE03A7
:102820001361EFE7836B002BD1D0DB6B002BEDD175
:10283000CDE7436CC3F3C813026803F0060343F00B
:10284000F00313617047436CC3F3C813026803F0CD
:10285000060343F0F1031361B9E7436C0268DBB28E
:102860001361436B3BB1DB6B4BB10268536843F4BC
:10287000006353607047826B002AF4D1FAE7836BE0
:10288000DB6B002BF1D1F5E710B48BB090F83E3044
:10289000DAB2C16A046B90F83D30DBB2222B0BD068
:1028A0000023099303685A6909929B690993099B5C
:1028B0000BB05DF8044B7047036D0BB9402A17D07D
:1028C000036D1BB90369B3F5404F19D0438D9BB21B
:1028D000002B25D1029303685A6902929A690292E9
:1028E000029A1A6842F400721A6000230365DFE757
:1028F000009303685A6900929B690093009BD7E795
:102900000023019303685A6901929A690192019A1E
:102910001A6842F480721A60036D01330365C7E7D9
:10292000438D9BB2012B25D0438D9BB2022B7BD0D4
:102930000268136843F48063136003685A6812F4F2
:10294000006F0ED011F5803F07D0012905D008296E
:1029500003D0102901D0202903D15A6842F48052B3
:102960005A600023089303685A6908929B69089388
:10297000089BBAE711F5803F11D0082934D02029EF
:1029800032D0122C2ED0042940D002293ED010295A
:102990003CD00268136823F4806313603BE0026854
:1029A000136823F48063136003685A6812F4006F9D
:1029B0000CD01A6822F480621A6000230393036823
:1029C0005A6903929B690393039B8EE7002204924A
:1029D0005A6904929A690492049A1A6842F400723D
:1029E0001A6082E70129CED00268136823F480635D
:1029F00013600023069303685A6906929A69069247
:102A0000069A1A6842F400721A606EE70268136848
:102A100043F4806313600023059303685A690592A9
:102A20009B690593059B60E704290ED002290CD011
:102A300010290AD00268136823F4806313600268C7
:102A4000136843F40063136004E00268136843F4FE
:102A50008063136003685A6812F4006F0ED011F59A
:102A6000803F07D0012905D0082903D0102901D0C3
:102A7000202903D15A6842F480525A6000230793F8
:102A800003685A6907929B690793079B2DE7438D5B
:102A90009BB253B1426A036812781A61436A0133E8
:102AA0004362438D013B9BB243857047438D9BB28C
:102AB00053B103681A69436A1A70436A0133436267
:102AC000438D013B9BB24385704703685A6912F4FA
:102AD000806F11D06FF480625A610023036320225B
:102AE00080F83D2080F83E30026C42F0040202641F
:102AF00080F83C300120704700207047C36AB3F56E
:102B00002A0F04D0C36AB3F12A4F03D070470123C0
:102B1000C36270470823C362F8E7F8B506460C465F
:102B200017461D4622E0FFF787FC069BC01AA84205
:102B300000D8DDB900233363202286F83D2086F8D3
:102B40003E30326C42F02002326486F83C30012084
:102B50001AE033685B6924EA03039BB2B3FA83F398
:102B60005B099F420FD1B5F1FF3FDCD1C4F30743AE
:102B7000012BEED033689B6924EA03039BB2B3FABE
:102B800083F35B09EDE70020F8BDF8B504460D4678
:102B900016461F463CE01A6842F400721A60236829
:102BA0006FF480625A6100232363202284F83D2061
:102BB00084F83E30226C42F00402226484F83C30F7
:102BC000012033E0FFF738FCC01BB04200D8FEB94B
:102BD00000232363202284F83D2084F83E30226CB9
:102BE00042F02002226484F83C3001201EE0236879
:102BF0005B6925EA03039BB2003318BF0123A3B12D
:102C000023685A6912F4806FC5D1B6F1FF3FD9D15C
:102C1000C5F30743012BEAD023689B6925EA030328
:102C20009BB2003318BF0123E9E70020F8BD70B55F
:102C300004460D46164623685B6913F0800F1CD1CD
:102C40002046FFF742FFD0B9B5F1FF3FF3D0FFF7C1
:102C5000F3FB801BA84201D8002DECD10023236395
:102C6000202284F83D2084F83E30226C42F020027D
:102C7000226484F83C30012000E0002070BD012077
:102C8000FCE700002DE9F04184B004468846164672
:102C90001F460B9D0268136843F480731360009510
:102CA0000A9B00224FF00111FFF737FF60B1236844
:102CB0001B6813F4807F4FD04FF400732364032309
:102CC000184604B0BDE8F081226808F0FE031361E5
:102CD0002B460A9A21492046FFF757FF08B10123E6
:102CE000EEE70023039323685A6903929B690393D9
:102CF000039B2A460A992046FFF799FF034658B1DD
:102D0000236C042B01D00123DAE72268136843F413
:102D1000007313600123D3E7012F0ED02368320A1A
:102D20001A612A460A992046FFF781FF034678B1C7
:102D3000236C042B05D00123C2E72268F6B216618A
:102D4000BEE72268136843F4007313600123B7E7FA
:102D50002268F6B21661B3E70323B1E7020001006F
:102D60002DE9F04184B004460E46174698460B9D67
:102D70000268136843F4806313600268136843F4C5
:102D80008073136000950A9B00224FF00111FFF73A
:102D9000C4FE68B123681B6813F4807F00F089804B
:102DA0004FF4007323640323184604B0BDE8F08198
:102DB000F6B2236806F0FE021A612B460A9A3F49D2
:102DC0002046FFF7E2FE08B10123EDE7002303935D
:102DD00023685A6903929B690393039B2A460A99C5
:102DE0002046FFF724FF58B1236C042B01D00123A8
:102DF000DAE72268136843F4007313600123D3E712
:102E0000B8F1010F0DD12368FFB21F612A460A995C
:102E10002046FFF70CFF20B3236C042B1AD00123AC
:102E2000C2E723683A0A1A612A460A992046FFF740
:102E3000FEFE58B1236C042B01D00123B4E72268B5
:102E4000136843F4007313600123ADE72368FFB2F6
:102E50001F61DBE72268136843F4007313600123EA
:102E6000A2E72268136843F48073136000950A9BFD
:102E700000224FF001112046FFF74FFE48B12368B2
:102E80001B6813F4807F16D04FF400732364032370
:102E90008AE7236846F001061E612B460A9A074915
:102EA0002046FFF772FE034600283FF47DAF012362
:102EB0007AE7032378E7032376E700BF02000100E7
:102EC00070B504460D46164623685B6913F0040F7F
:102ED0001CD12046FFF7F9FDD0B9B5F1FF3FF3D083
:102EE000FFF7AAFA801BA84201D8002DECD10023DD
:102EF0002363202284F83D2084F83E30226C42F087
:102F00002002226484F83C30012000E0002070BDE3
:102F10000120FCE770B505460C4616462B685A6939
:102F200012F0400F29D15A6912F0100F15D1FFF796
:102F300083FA801BA04201D8002CEFD100232B6321
:102F4000202285F83D2085F83E302A6C42F0200290
:102F50002A6485F83C30012070BD6FF010025A6180
:102F600000232B63202285F83D2085F83E302A6C13
:102F70002A6485F83C300120EEE70020ECE70000F1
:102F8000002800F0C880F8B5044690F83D30002BCA
:102F900075D0242384F83D302268136823F00103A0
:102FA00013602268136843F40043136022681368B7
:102FB00023F40043136001F045FB6268584B9A42CA
:102FC00062D8584B98428CBF00230123002B40F05D
:102FD000A480554BA3FB00239B0C21684A6822F078
:102FE0003F021A434A6025682A6A22F03F02666857
:102FF0004B498E424ED8013313432B622568E96951
:1030000021F44F4121F0FF016368454A93424BD8B8
:1030100001385B00B0FBF3F30133C3F30B03042B64
:1030200038BF04230B43EB6121680B6823F0C00316
:10303000E269206A024313430B6021688B6823F422
:10304000034323F0FF032269E068024313438B60CC
:103050002168CB6823F0FF036269A0690243134330
:10306000CB602268136843F00103136000202064E2
:10307000202384F83D30206384F83E00F8BD80F8BA
:103080003C30FFF763F884E7284B98428CBF00235D
:1030900001239BE74FF4967101FB03F32449A1FB45
:1030A00003139B090133A7E7A268BAB9461E03EBD5
:1030B0004307B6FBF7F60136C6F30B06B6FA86F6FB
:1030C000760936BBC2B9013803EB4303B0FBF3F317
:1030D0000133C3F30B0242F40043A3E7461E03EBA4
:1030E000830707EB8707B6FBF7F60136C6F30B0637
:1030F000B6FA86F67609E4E7013803EB830303EBBF
:103100008303B0FBF3F20132C2F30B0242F44043FB
:1031100088E7012386E7012070470120AEE700BF62
:10312000A08601007F841E0083DE1B43FF083D0054
:10313000D34D62102DE9F04182B004460E46174689
:103140009846FFF779F994F83D30DBB2202B04D094
:103150000223184602B0BDE8F0810546009019230D
:1031600001224C492046FFF7D8FC002840F08B8014
:1031700094F83C30012B00F08880012384F83C3027
:1031800023681A6812F0010F03D11A6842F0010295
:103190001A602268136823F400631360212384F803
:1031A0003D30402384F83E3000232364089B636253
:1031B000BDF824306385638D2385374BE362019529
:1031C0000A9B009343463A4631462046FFF75AFD94
:1031D00000285CD1238D002B34D02A460A99204642
:1031E000FFF725FD10BB626A236812781A61616AD5
:1031F0004B1C6362238D013B9BB22385628D013A98
:1032000092B262852268506910F0040FE2D0002B60
:10321000E0D04B781361636A01336362238D013B15
:103220002385638D013B9BB26385D3E7236C042B1D
:1032300001D001238DE72268136843F40073136003
:10324000012386E72A460A992046FFF739FE0346FE
:1032500058B1236C042B01D001237AE7226813684C
:1032600043F400731360012373E721680A6842F492
:1032700000720A60202284F83D20002284F83E205B
:1032800084F83C2065E7022363E7022361E701231A
:103290005FE700BF020010000000FFFF2DE9F041D2
:1032A00086B004460E4617469846FFF7C5F894F8D0
:1032B0003D30DBB2202B04D00226304606B0BDE8FC
:1032C000F08105460090192301229E492046FFF710
:1032D00024FC002840F0348194F83C30012B00F0AD
:1032E0003781012384F83C3023681A6812F0010FFB
:1032F00003D11A6842F001021A602268136823F4AD
:1033000000631360222384F83D30402384F83E306C
:10331000002323640C9B6362BDF834306385638DA6
:103320002385894BE36201950E9B009343463A4601
:1033300031462046FFF714FD0646002840F00A817A
:10334000238D5BB9029323685A6902929A690292AB
:10335000029A1A6842F400721A6072E0012B0AD0D5
:10336000022B1AD00023059323685A6905929B69A2
:103370000593059B65E02268136823F4806313605E
:103380000023039323685A6903929A690392039A6C
:103390001A6842F400721A6053E02268136823F43A
:1033A000806313602268136843F400631360002392
:1033B000049323685A6904929B690493049B40E038
:1033C0002A460E992046FFF7A5FD002840F0C4804C
:1033D00023681A69636A1A70636A01336362238D12
:1033E000013B2385638D013B9BB2638529E00095FA
:1033F0000E9B002255492046FFF78FFB002840F026
:10340000AD802268136843F40073136023681A695F
:10341000636A1A70626A531C6362238D013B2385C1
:10342000638D013B9BB2638523681B695370636A9C
:1034300001336362238D013B2385638D013B9BB286
:103440006385238D002B72D0032B49D8012BB7D075
:10345000022BCCD000950E9B00223C492046FFF762
:103460005CFB00287CD12268136823F4806313601E
:1034700023681A69636A1A70636A01336362238D71
:10348000013B2385638D013B9BB2638500950E9BB9
:1034900000222E492046FFF740FB002862D1226817
:1034A000136843F40073136023681A69636A1A701F
:1034B000626A531C6362238D013B2385638D013B4C
:1034C0009BB2638523681B695370636A013363622F
:1034D000238D013B2385638D013B9BB26385B0E760
:1034E0002A460E992046FFF715FD00283CD1236897
:1034F0001A69636A1A70626A531C6362238D013B06
:103500002385638D013B9BB263852368596911F064
:10351000040F96D01B695370636A01336362238D75
:10352000013B2385638D013B9BB2638589E72023A3
:1035300084F83D30002384F83E3084F83C30BCE60B
:103540000226BAE6020010000000FFFF040001009E
:103550000226B2E60126B0E60126AEE60126ACE67A
:103560000126AAE60126A8E60126A6E670477047CE
:10357000704708B590F83D30DAB2438D9BB27BB10D
:10358000416A036809781961436A01334362438DD4
:10359000013B9BB24385438D9BB20BB9292A00D0D6
:1035A00008BD0268536823F48063536021230363DA
:1035B000282380F83D30FFF7DBFFF1E7704708B5BF
:1035C00090F83D30DAB2438D9BB27BB10368196944
:1035D000436A1970436A01334362438D013B9BB2D6
:1035E0004385438D9BB20BB92A2A00D008BD0268DF
:1035F000536823F48063536022230363282380F8F5
:103600003D30FFF7DBFFF1E7704708B590F83D303C
:1036100003F02803282B07D003686FF002025A61D9
:10362000002380F83C3008BD0268536823F48063AF
:10363000536011F0040F0BD0002311F0800F09D15B
:103640008289002180F83C101946FFF7DDFFEAE788
:103650000123F2E7028BF4E77047000008B590F809
:103660003D30DBB2C26A082A01D0202A01D1282BC2
:1036700006D0212B1ED003686FF480625A6108BD0A
:103680001A4BC3620268536823F4E0635360036813
:103690006FF480625A610268136823F480631360D8
:1036A00000230363202280F83D2080F83E30FFF79E
:1036B000D3FFE4E70D4BC36221230363202380F88B
:1036C0003D30002380F83E300268536823F4E06305
:1036D000536003686FF480625A610268136823F4D0
:1036E00080631360FFF744FFC9E700BF0000FFFFDE
:1036F000704710B590F83D30DBB290F83E20D2B262
:10370000C46A018D09B9212B04D0212B3BD0402A5A
:1037100037D010BD082C04D0202C02D014F5803FE7
:1037200019D10268536823F4E06353600268136898
:1037300043F40073136000230363202380F83D30BB
:1037400090F83E30DBB2402B15D0002380F83E309D
:10375000FFF70CFFDDE70268536823F4E063536072
:1037600011230363002380F83E30202380F83D308E
:10377000FFF7FCFECDE7002380F83E30FFF7B8FFEF
:10378000C7E7222BC5D1438D9BB283B190F83E3061
:10379000DBB2402B11D0426A036812781A61436A87
:1037A00001334362438D013B9BB24385B1E702681D
:1037B000536823F480635360ABE7FEF7B8FFA8E7D4
:1037C00008B5C26A90F83D30DBB2212B05D090F8E5
:1037D0003E30DBB2402B46D008BD438D9BB203BBCD
:1037E000082A04D0202A02D012F5803F25D1026891
:1037F000536823F4E06353600268136843F4007372
:10380000136000230363202380F83D3090F83E309E
:10381000DBB2402B21D0002380F83E30FFF7A6FE1C
:10382000DAE7426A036812781A61436A0133436235
:10383000438D013B9BB24385CEE70268536823F476
:10384000E063536011230363002380F83E3020239C
:1038500080F83D30FFF78AFEBEE7002380F83E3057
:10386000FFF746FFB8E7FEF762FFB5E7704708B518
:1038700090F83D30DBB2222B00D008BD438D9BB2C7
:10388000032B14D903681A69436A1A70436A013317
:103890004362438D013B9BB24385438D9BB2032B17
:1038A000EBD10268536823F480635360E5E7C26A92
:1038B000022AE2D0012BE0D80268136823F4806367
:1038C00013600268536823F4E063536003681A6965
:1038D000436A1A70436A01334362438D013B9BB2D2
:1038E0004385202380F83D3090F83E30DBB2402BFA
:1038F00007D0002380F83E3012230363FFF737FE22
:10390000BBE7002380F83E300363FFF7AFFFB4E767
:1039100008B5C26A438D9BB2042B13D0438D9BB272
:10392000032B20D0438D9BB2022B36D003681A693B
:10393000436A1A70436A01334362438D013B9BB271
:1039400043850FE00268536823F480635360036883
:103950001A69436A1A70436A01334362438D013B1B
:103960009BB2438508BD01684B6823F480634B60BC
:10397000042A06D0022A04D00268136823F4806364
:10398000136003681A69436A1A70436A0133436219
:10399000438D013B9BB24385E4E7012A0BD0102AFB
:1039A00009D0042A36D0022A34D00268136843F4BE
:1039B0000073136004E00268136823F480631360EB
:1039C00003681A69436A1A70426A531C4362438D42
:1039D000013B9BB2438503681B695370436A013303
:1039E0004362438D013B9BB243850268536823F4D5
:1039F00040735360202380F83D3090F83E30DBB2B6
:103A0000402B0DD0002380F83E3012230363FFF7D4
:103A1000AEFDA7E70268136843F480631360CFE745
:103A2000002380F83E300363FFF720FF9AE77047DA
:103A3000704708B5806B90F83D30DBB2426B0AB13D
:103A40000021D163826B0AB10021D16301680A6849
:103A500022F480620A6000224285426B0AB1002192
:103A60001165826B0AB10021116501680A6822F0B4
:103A700001020A6090F83D20D2B2602A0CD003F017
:103A80002803282B12D0202380F83D30002380F813
:103A90003E30FFF7CCFF08BD202380F83D300023E7
:103AA00080F83E300364FFF7C3FFF4E70268136851
:103AB00043F0010313600268136843F480631360EA
:103AC00000230363282380F83D30E2E710B5044665
:103AD00090F83D30DBB290F83E20D2B2102A33D0BD
:103AE00003F02802282A37D02268526812F4006FA7
:103AF00004D1602B02D0202384F83D3000232363BF
:103B000084F83E3023685A6812F4006F48D05A682F
:103B100022F400625A60626B92F83530DBB2012BFE
:103B200020D0444B1365606BFEF70AFD002849D096
:103B30002268136823F001031360202384F83D30CA
:103B4000606B036D98473DE0222BC9D101680A687C
:103B500022F400620A60C3E700232363282384F869
:103B60003D30CFE7A36B334A1A65A06BFEF7E8FC44
:103B700040B323685A6912F0400F05D01A69636A8E
:103B80001A70636A013363622268136823F00103C9
:103B90001360202384F83D30A06B036D984711E03B
:103BA00094F83D20D2B2602A1FD05A6912F0400F1B
:103BB00005D01A69636A1A70636A0133636220462A
:103BC000FFF735FF236C13F00F0F04D02268536802
:103BD00023F4E063536094F83D30DBB2226C12F0C2
:103BE000040F01D0282B18D010BD202284F83D20CE
:103BF000002222645A6912F0400F05D01A69636AE4
:103C00001A70636A013363622268136823F0010348
:103C100013602046FFF70CFFD4E7074BE362002355
:103C20002363202284F83D2084F83E302046FFF7AD
:103C300013FDD9E7333A00080000FFFF30B583B029
:103C4000044690F83D50EDB20268536823F4E063F7
:103C500053600023019303685A6901921A6842F085
:103C600001021A60019B0268136823F480631360E9
:103C700003685A6812F4006F38D0222D21D02A2D03
:103C80001FD0426B1268526892B24285428D92B246
:103C90001AB1026C42F0040202645A6822F4006213
:103CA0005A60606BFEF75FFC01281FD0636B434ACC
:103CB0001A65606BFEF744FCC0B1606B036D9847FA
:103CC00014E0A26B1268526892B26285628D92B261
:103CD0001AB1226C42F0040222645A6822F4006293
:103CE0005A60A06BFEF73FFC012840D1638D9BB268
:103CF00023B323685A6912F0040F09D01A69636A62
:103D00001A70636A01336362638D013B9BB2638502
:103D100023685A6912F0400F09D01A69636A1A7051
:103D2000636A01336362638D013B9BB26385638D7C
:103D30009BB21BB1236C43F004032364236C13BBBD
:103D40002A2D25D094F83D30DBB2282B29D0236BC7
:103D5000222B01D0222D19D100232363202284F8A5
:103D60003D2084F83E302046FFF728FC0EE0A36B90
:103D7000124A1A65A06BFEF7E3FB0028B6D0A06BD1
:103D8000036D9847B2E72046FFF7A0FE03B030BDB1
:103D900000232363282384F83D302046FFF70EFCE0
:103DA000D0E7074BE36200232363202284F83D2001
:103DB00084F83E302046FFF74FFCE7E7333A00082F
:103DC0000000FFFF70B5044602685568C66A90F8A7
:103DD0003E30DBB290F83D10102B14D0C8B2402B0F
:103DE00011D0236C002B71D05369002113F0020F06
:103DF0006FD015F4007F6CD0236C03B1916920461D
:103E0000FFF703FC70BD9069536913F0010105D100
:103E1000B6F52A0FF6D0B6F12A4FF3D011B115F44A
:103E2000007F25D113F0080F02D015F4007F26D1B2
:103E300013F0020F02D015F4007F24D110F0040F0C
:103E400029D0526812F4006FDCD113F0800F05D036
:103E500015F4806F02D013F0040F18D013F0040F84
:103E6000D0D015F4007FCDD02046FFF7A9FCC9E7DC
:103E70002046FEF743FE2046FEF79AFCC2E72046A6
:103E8000FEF7EBFCBEE72046FEF7FEFCBAE7204655
:103E9000FFF72FFCB6E7526812F4006FB2D113F0AF
:103EA000400F05D015F4806F02D013F0040F09D035
:103EB00013F0040FA6D015F4007FA3D02046FFF71F
:103EC00027FD9FE72046FFF7D2FC9BE791695369E6
:103ED0008CE713F0100F02D015F4007F17D12128C2
:103EE00019D0292817D013F0400F05D015F4806F92
:103EF00002D013F0040F27D013F0040F82D015F472
:103F0000007F3FF47FAF2046FEF7D0FD7AE72046E2
:103F1000FFF794FE76E713F0800F05D015F4806F5D
:103F200002D013F0040F0BD013F0040F3FF46AAF6C
:103F300015F4007F3FF466AF2046FEF7A8FD61E769
:103F40002046FFF716FB5DE72046FFF738FB59E7F1
:103F5000F8B5044603685D695F6890F83E20D2B208
:103F600015F4807F07D017F4807F3CD06FF4807108
:103F70005961012600E0002615F4007F08D017F4EF
:103F8000807F05D046F0020623686FF40071596106
:103F900015F4806F19D017F4807F16D0638D99B215
:103FA00094F83D30DBB2206B202A1ED023686FF4DA
:103FB0008061596146F00406102A01D0402A04D1DC
:103FC0002268136843F40073136015F4006F08D07F
:103FD00017F4807F05D046F0080623686FF400626E
:103FE0005A6186B9F8BD0026C6E70029DED1212B2B
:103FF00005D0292B03D0282BD8D12128D6D1204673
:10400000FFF72CFBE1E7236C1E4326642046FFF7F5
:104010005DFDE7E7002800F0E48170B582B004465A
:10402000036813F0010F3BD0A74B9B6803F00C0310
:10403000042B2CD0A44B9B6803F00C03082B21D03D
:104040006368B3F5803F4FD0B3F5A02F52D09E4B9D
:104050001A6822F480321A601A6822F480221A60E8
:104060006368002B50D0FEF7E7F90546964B1B68B6
:1040700013F4003F14D1FEF7DFF9401B6428F5D993
:104080000320B3E1904B5B6813F4800FD8D08E4BC4
:104090001B6813F4003F03D06368002B00F0A3817A
:1040A000236813F0020F55D0874B9B6813F00C0F59
:1040B0003ED0854B9B6803F00C03082B33D0E3689C
:1040C000002B68D0814B01221A60FEF7B5F9054636
:1040D0007D4B1B6813F0020F54D1FEF7ADF9401B66
:1040E0000228F5D9032081E1774A136843F480332D
:1040F0001360B5E7744B1A6842F480221A601A689C
:1041000042F480321A60ABE7FEF796F905466E4B33
:104110001B6813F4003FC3D0FEF78EF9401B6428E0
:10412000F5D9032062E1684B5B6813F4800FC6D1B8
:10413000654B1B6813F0020F04D0E368012B01D01C
:10414000012053E1604A136823F0F803216943EA30
:10415000C1031360236813F0080F40D0636963B391
:104160005B4B01221A60FEF767F90546564B5B6F01
:1041700013F0020F33D1FEF75FF9401B0228F5D987
:10418000032033E1504A136823F0F803216943EA1E
:10419000C1031360DEE74D4B00221A60FEF74CF9B5
:1041A0000546494B1B6813F0020FD3D0FEF744F9C4
:1041B000401B0228F5D9032018E1454B00221A6064
:1041C000FEF73AF90546404B5B6F13F0020F06D03D
:1041D000FEF732F9401B0228F5D9032006E12368D7
:1041E00013F0040F79D0384B1B6C13F0805F33D180
:1041F00000230193344B1A6C42F080521A641B6CFA
:1042000003F080530193019B0125324B1B6813F48B
:10421000807F23D0A368012B34D0052B38D02A4BC4
:104220001A6F22F001021A671A6F22F004021A674D
:10423000A368002B36D0FEF7FFF80646224B1B6F13
:1042400013F0020F48D1FEF7F7F8801B41F28833D4
:104250009842F3D90320C9E00025D6E71D4A136828
:1042600043F480731360FEF7E7F80646194B1B68AA
:1042700013F4807FCED1FEF7DFF8801B0228F5D93A
:104280000320B3E0104A136F43F001031367CFE735
:104290000D4B1A6F42F004021A671A6F42F00102C6
:1042A0001A67C5E7FEF7C8F80646074B1B6F13F001
:1042B000020F11D0FEF7C0F8801B41F288339842FC
:1042C000F3D9032092E000BF0038024000004742CB
:1042D000800E474200700040EDB9A369002B00F04A
:1042E0008480454A926802F00C02082A51D0022BC1
:1042F00017D0424B00221A60FEF79EF804463E4B50
:104300001B6813F0007F42D0FEF796F8001B0228CE
:10431000F5D903206AE0384A136C23F08053136404
:10432000DBE7364B00221A60FEF786F80546324B73
:104330001B6813F0007F06D0FEF77EF8401B0228B2
:10434000F5D9032052E0E369226A1343626A43EA23
:104350008213A26A5208013A43EA0243E26A43EA3C
:104360000263254A5360254B01221A60FEF764F868
:104370000446214B1B6813F0007F06D1FEF75CF862
:10438000001B0228F5D9032030E000202EE0002099
:104390002CE0012B2CD0184B5B6803F48001E26900
:1043A000914201D0012021E003F03F02216A8A42BC
:1043B00001D001201AE0616A47F6C0721A408A42B1
:1043C00001D0012012E003F44032A16A8A4201D0F8
:1043D00001200BE003F07063E26A93420AD00120EF
:1043E00004E001207047012000E0002002B070BD11
:1043F0000120FBE70020F9E7003802406000474257
:10440000324B9B6803F00C03042B5CD0082B01D0CB
:104410002F4870472DE9F04B2C4B5A6802F03F02B1
:104420005B6813F4800F2BD0284B5B68C3F38813B1
:104430001E4600275C010025E41A65EB0705A9016B
:1044400041EA9461A001001B61EB0501CB0043EA46
:104450005073C400A01943EB07014B0243EAD05349
:104460004402204619460023FCF79EFB174B5B686D
:10447000C3F3014301335B00B0FBF3F0BDE8F08B05
:10448000124B5B68C3F388131E4600275C010025AE
:10449000E41A65EB0705A90141EA9461A001001B3C
:1044A00061EB0501CB0043EA5073C400A01943EB54
:1044B00007018B0243EA90538402204619460023E9
:1044C000FCF772FBD2E70348704700BF0038024098
:1044D0000024F40000127A00002800F09E8070B5DD
:1044E0000446504B1B6803F00F038B4209D2CBB23A
:1044F0004C4A1370136803F00F038B4201D0012064
:1045000070BD236813F0020F17D013F0040F04D00E
:10451000454A936843F4E0539360236813F0080F0F
:1045200004D0414A936843F4604393603E4A9368E1
:1045300023F0F003A068034393600D46236813F053
:10454000010F32D06368012B21D09A1E012A25D990
:10455000354A126812F0020F61D033498A6822F09E
:10456000030213438B60FDF767FF06462E4B9B68E3
:1045700003F00C036268B3EB820F16D0FDF75CFF0B
:10458000801B41F288339842F0D90320B8E7264ACD
:10459000126812F4003FE0D10120B1E7224A12680C
:1045A00012F0007FD9D10120AAE71E4B1B6803F04F
:1045B0000F03AB4209D9EAB21A4B1A701B6803F019
:1045C0000F03AB4201D001209AE7236813F0040FD8
:1045D00006D0154A936823F4E053E1680B439360D7
:1045E000236813F0080F07D00F4A936823F4604341
:1045F000216943EAC1039360FFF702FF0A4B9B68FE
:10460000C3F30313094AD35CD840094B1860094B24
:104610001868FDF7C7FE002072E7012070470120EF
:104620006EE700BF003C02400038024000A90008CD
:104630000000002008000020014B1868704700BFF0
:104640000000002008B5FFF7F7FF044B9B68C3F399
:104650008223034AD35CD84008BD00BF0038024023
:1046600010A9000808B5FFF7E7FF044B9B68C3F3E8
:104670004233034AD35CD84008BD00BF0038024033
:1046800010A9000830B583B00446036813F0050F85
:104690000ED1236813F0020F38D1236813F0080FEE
:1046A00000F09B80227D4E4B1A60002003B030BD8D
:1046B0004C4B00221A60FDF7BFFE05464A4B1B68B3
:1046C00013F0006F06D0FDF7B7FE401B0228F5D9A6
:1046D0000320EBE76368A26843EA8213E26843EAD7
:1046E0000273414AC2F884303E4B01221A60FDF742
:1046F000A3FE05463C4B1B6813F0006FC9D1FDF7C4
:104700009BFE401B0228F5D90320CFE7002301932D
:10471000354B1A6C42F080521A641B6C03F08053C4
:104720000193019B314A136843F480731360FDF7D2
:1047300083FE05462D4B1B6813F4807F06D1FDF7E1
:104740007BFE401B0228F5D90320AFE7264B1B6FE9
:1047500013F4407312D0226902F440729A420DD0D1
:10476000214B1A6F22F44072214901200860002079
:1047700008601A671B6F13F0010F12D1236903F44D
:104780004072B2F5407F1DD0174A936823F4F813A6
:10479000936015490B6F2269C2F30B0213430B6739
:1047A0007BE7FDF749FE05460F4B1B6F13F0020F29
:1047B000E4D1FDF741FE401B41F288339842F3D922
:1047C000032073E708498A6822F4F81223F0704343
:1047D00023F4407313438B60DBE7002066E700BFE0
:1047E000E011474268004742003802400070004034
:1047F000400E474238B504460268D36823F0A00350
:10480000D360FDF719FE05462368DB6813F0200F1F
:1048100007D1FDF711FE401BB0F57A7FF4D90320D4
:1048200000E0002038BD38B50368DA6812F0400FA8
:1048300001D0002038BD04464FF0FF32DA60FDF7AA
:10484000FBFD05462368DB6813F0400F07D1FDF739
:10485000F3FD401BB0F57A7FF4D90320EAE700208E
:10486000E8E738B500285CD00446437F002B40D0F1
:10487000022363772368CA225A62236853225A624A
:104880002046FFF7D0FF0546002836D122689368FE
:1048900023F4E00323F04003936021688A6863688F
:1048A000206903436069034313438B602368E26814
:1048B0001A6122681369A16843EA014313612268FF
:1048C000D36823F08003D36023689B6813F0200F24
:1048D0001BD02268136C23F4802313642268136CAA
:1048E000A1690B4313642368FF225A620123637793
:1048F00009E00377FDF774FCBAE72368FF225A62E8
:10490000042363770125284638BD2046FFF772FF50
:104910000028DED02368FF225A6204236377012532
:10492000F1E70125EFE7030903EB83035A0000F0E9
:104930000F001044C0B2704770B503689B6A4B60AB
:1049400003681B69C3F30E038B6003681B6803F0E5
:104950007F3323F0FE431D0C05F03F000870C3F3C6
:1049600006264E7003F07F048C7005F04005CD7074
:104970005AB90D46FFF7D7FF28703046FFF7D3FF2F
:1049800068702046FFF7CFFFA870002070BD70B59B
:1049900003685B6823F07F4323F0C003180CC870E2
:1049A000C3F304264E7003F03F058D70C3F342330A
:1049B0000B705AB90C46FFF7B6FFE0703046FFF7B0
:1049C000B2FF60702846FFF7AEFFA070002070BDF8
:1049D0000268D36843F00103D3600268936803F070
:1049E0000703062B03D0136843F001031360002074
:1049F0007047704770477047704710B504460368AA
:104A00001A6912F0020F11D0DA6812F0020F0DD0FD
:104A10006FF002021A610123037703689B6913F0A8
:104A2000030F70D0FFF7E6FF0023237723681A698E
:104A300012F0040F12D0DA6812F0040F0ED06FF0EB
:104A400004021A610223237723689B6913F4407FD1
:104A50005FD02046FFF7CEFF0023237723681A6933
:104A600012F0080F12D0DA6812F0080F0ED06FF0B3
:104A700008021A61042323772368DB6913F0030F0C
:104A80004ED02046FFF7B6FF0023237723681A692C
:104A900012F0100F12D0DA6812F0100F0ED06FF073
:104AA00010021A61082323772368DB6913F4407F1F
:104AB0003DD02046FFF79EFF0023237723681A6925
:104AC00012F0010F03D0DA6812F0010F36D123681B
:104AD0001A6912F0800F03D0DA6812F0800F34D117
:104AE00023681A6912F0400F03D0DA6812F0400F01
:104AF00032D123681A6912F0200F03D0DA6812F05D
:104B0000200F30D110BDFFF774FF2046FFF773FF71
:104B10008AE72046FFF76DFF2046FFF76CFF9BE713
:104B20002046FFF766FF2046FFF765FFACE720460B
:104B3000FFF75FFF2046FFF75EFFBDE76FF0010262
:104B40001A612046FDF704F9C1E76FF080021A618F
:104B5000204600F077F8C3E76FF040021A61204664
:104B6000FFF74AFFC5E76FF020021A61204600F008
:104B700068F8C7E70368254A90420ED0B0F1804F2D
:104B80000BD0A2F57C42904207D002F580629042A1
:104B900003D002F58062904203D123F070034A688B
:104BA00013431A4A90421AD0B0F1804F17D0A2F5A1
:104BB0007C42904213D002F5806290420FD002F501
:104BC000806290420BD002F59A32904207D002F5F3
:104BD0008062904203D002F58062904203D123F4B8
:104BE0004073CA68134323F080034A691343036088
:104BF0008B68C3620B688362044B984202D0012326
:104C0000436170470B690363F9E700BF000001408F
:104C1000A8B110B5044690F83D305BB1022384F88A
:104C20003D30211D2068FFF7A5FF012384F83D30AA
:104C3000002010BD80F83C30FDF7E0FAEEE70120DF
:104C40007047704770470268D36823F49073D3604D
:104C50000268536923F001035361202380F83A303E
:104C6000704790F83930DBB2212B2AD18368B3F535
:104C7000805F16D0036A5A1C02621A7803685A6071
:104C8000C38C013B9BB2C384EBB90268D36823F0A9
:104C90008003D3600268D36843F04003D3600020F0
:104CA0007047036A1B880268C3F3080353600369F3
:104CB0001BB9036A02330362E2E7036A013303624A
:104CC000DEE7022070470020704700002DE9F04B1E
:104CD00004460268136923F44053C1680B4313610F
:104CE00083680269134342691343C2691A43016826
:104CF000CB6823F4164323F00C031343CB60026804
:104D0000536923F4407381690B435361C369B3F55D
:104D1000004F3BD00368714A934200F0AB8002F52C
:104D20008062934200F0A680FFF78CFC4FF00009F0
:104D3000061849EB090716EB000B47EB090C4FEA85
:104D4000CC0343EA5B734FEACB0293469C4663680D
:104D50009A009B0F10EB0B0049EB0C01FBF724FFB3
:104D60005F4DA5FB00325109642202FB11021301C1
:104D70003233A5FB03235B0903F0F00202EB0112BF
:104D800003F00F03216813448B60A4E00368534AC7
:104D9000934239D002F58062934235D0FFF752FC3E
:104DA00083464FF0000C06184CEB0C0716EB00087E
:104DB00047EB0C094FEAC90343EA58734FEAC802AC
:104DC0009046994662680021921841EB01031BEB63
:104DD00008004CEB0901FBF7E7FE414DA5FB003253
:104DE0005109642202FB1102D3003233A5FB0323D5
:104DF0005B095A0002F4F87202EB011203F0070398
:104E0000216813448B6066E0FFF72CFC80464FF06E
:104E10000009061849EB090716EB000B47EB090CD4
:104E20004FEACC0343EA5B734FEACB0293469C46BE
:104E300062680021921841EB010318EB0B0049EB6B
:104E40000C01FBF7B1FE264DA5FB0032510964228F
:104E500002FB1102D3003233A5FB03235B095A0086
:104E600002F4F87202EB011203F007032168134405
:104E70008B6030E0FFF7F6FB4FF00009061849EBB6
:104E8000090716EB000B47EB090C4FEACC0343EA8A
:104E90005B734FEACB0293469C4663689A009B0F74
:104EA00010EB0B0049EB0C01FBF77EFE0C4DA5FB54
:104EB00000325109642202FB110213013233A5FBB7
:104EC00003235B0903F0F00202EB011203F00F036E
:104ED000216813448B60BDE8F08B00BF00100140D7
:104EE0001F85EB512DE9F04105460F4616469846C1
:104EF000069C2B681B6837EA03030CBF01230023C1
:104F0000B3421DD1B4F1FF3FF3D02CB1FDF794FAB9
:104F1000A0EB0800A042ECD92A68D36823F4D07330
:104F2000D3602A68536923F001035361202385F875
:104F3000393085F83A30002385F83830032000E016
:104F40000020BDE8F08158B310B5044690F8393020
:104F50000BB3242384F839302268D36823F4005338
:104F6000D3602046FFF7B2FE2268136923F4904312
:104F700013612268536923F02A0353612268D368BE
:104F800043F40053D3600020E063202384F83930D9
:104F900084F83A3010BD80F83830FDF74FF9D8E783
:104FA000012070472DE9F04383B01E4690F8393058
:104FB000DBB2202B56D104460D469046002956D030
:104FC000002A56D090F83830012B54D0012380F8B5
:104FD00038304FF00009C0F83C90212380F8393078
:104FE000FDF72AFA0746A4F82480A4F8268084F85E
:104FF000389010E000963B46002280212046FFF7C3
:1050000071FF002839D12B882268C3F3080353604D
:105010002369C3B90235E38C9BB2B3B1E38C013B86
:105020009BB2E384A368B3F5805FE3D000963B4670
:10503000002280212046FFF755FF00BB2A78236815
:105040005A600135E7E70135E5E700963B46002267
:1050500040212046FFF746FF034690B9202284F8FE
:10506000392000E00223184603B0BDE8F083012395
:10507000F9E70123F7E70223F5E70323F3E7032327
:10508000F1E70323EFE72DE9F04383B01E4690F8E4
:105090003A30DBB2202B5CD104460D469046002905
:1050A0005BD0002A5BD090F83830012B59D0012317
:1050B00080F838304FF00009C0F83C90222380F887
:1050C0003A30FDF7B9F90746A4F82C80A4F82E80F1
:1050D00084F838901DE000963B46002220212046AF
:1050E000FFF700FF00283ED1236933B923685B68CE
:1050F000C3F3080325F8023B0BE023685B68DBB2CF
:1051000025F8013B05E023685B6803F07F032B7003
:105110000135E38D9BB2BBB1E38D013B9BB2E385CF
:10512000A368B3F5805FD6D000963B4600222021CD
:105130002046FFF7D7FEC0B92369002BE3D12368CF
:105140005B682B700135E4E7202384F83A300020B7
:1051500000E0022003B0BDE8F0830120FAE701205F
:10516000F8E70220F6E70320F4E70320F2E790F8DF
:105170003930DBB2202B16D1B9B1C2B190F838303A
:10518000012B16D001628284C2840023C3632122D2
:1051900080F8392080F838300168CA6842F080020F
:1051A000CA601846704702207047012070470120EE
:1051B000704702207047704708B50168CB6823F03C
:1051C0004003CB60202380F83930FFF7F4FF002044
:1051D00008BD704708B590F83A30DBB2222B45D1B4
:1051E0008368B3F5805F0ED0036903BB03685A6818
:1051F000836A591C81621A70C38D013B9BB2C385BF
:10520000F3B1002033E0826A036943B903685B6845
:10521000C3F308031380836A02338362ECE70368F5
:105220005B68DBB21380836A01338362E4E703685F
:105230005B68826A511C816203F07F031370DBE7B5
:105240000268D36823F02003D3600268D36823F494
:105250008073D3600268536923F0010353612023F4
:1052600080F83A30FFF7B5FF002000E0022008BDCB
:105270007047000010B5044602681368D16852698F
:1052800013F00F0005D113F0200F02D011F0200F02
:1052900056D100286AD012F0010202D111F4907F99
:1052A00064D013F0010F06D011F4807F03D0E06BBF
:1052B00040F00100E06313F0040F04D01AB1E06B7A
:1052C00040F00200E06313F0020F04D01AB1E06B6B
:1052D00040F00400E06313F0080F07D011F0200F36
:1052E00000D11AB1E26B42F00802E263E26B002ADD
:1052F00048D013F0200F02D011F0200F24D12368E2
:105300005B6903F04003E26B12F0080F00D13BB37E
:105310002046FFF798FC23685A6912F0400F1BD013
:105320005A6922F040025A61636B8BB11A4A1A65BE
:10533000606BFDF705F928B3606B036D984721E0BA
:105340002046FFF747FF1DE02046FFF743FFD6E763
:105350002046FFF78DFF15E02046FFF789FF11E09B
:105360002046FFF785FF0023E3630BE013F0800F77
:1053700002D011F0800F06D113F0400F02D011F0CF
:10538000400F04D110BD2046FFF76BFCFAE7204622
:10539000FFF712FFF6E700BF9D53000808B5806BCA
:1053A0000023C385C384FFF763FF08BD000000002E
:1053B00000B551EC100B2C4A21F00043934285B00C
:1053C00020DD2A4A934209DD10EE102A0B46FAF737
:1053D0000BFF41EC100B05B05DF804FB684601F0D3
:1053E000E3F800F00300012817D002282FD028B3DB
:1053F00001209DED021B9DED000B02F019F951EC0F
:10540000100BE6E79FED161B01F0C2FB51EC100BF1
:1054100041EC100B05B05DF804FB9DED021B9DED0A
:10542000000B02F005F953EC102B10EE100A03F1FB
:10543000004141EC100B05B05DF804FB9DED021B33
:105440009DED000B01F0A4FB51EC100BC1E79DEDAD
:10545000021B9DED000B01F09BFBE4E7AFF3008026
:105460000000000000000000FB21E93FFFFFEF7F8C
:1054700000B551EC100B2C4A21F00043934285B04B
:1054800027DD2A4A934209DD10EE102A0B46FAF76F
:10549000ABFE41EC100B05B05DF804FB684601F073
:1054A00083F800F0030001281FD0022830D028B371
:1054B0009DED021B9DED000B01F06AFB53EC102BE0
:1054C00010EE100A03F1004141EC100B05B05DF83D
:1054D00004FB00209FED121B02F0AAF851EC100B08
:1054E00041EC100B05B05DF804FB9DED021B9DED3A
:1054F000000B01F04DFB51EC100BCAE701209DEDB4
:10550000021B9DED000B02F093F851EC100BC0E76D
:1055100001209DED021B9DED000B02F089F8CDE707
:105520000000000000000000FB21E93FFFFFEF7FCB
:1055300000F0FAB9000000002DE9F04F2DED028BCC
:10554000DFF824A38BB057EC106B55EC114B00F037
:10555000CFFA9AF90080B0EE408AF0EE608AB8F196
:10556000FF3F33D022462B4620462946FBF78EFAD2
:10557000834658BB32463B4630463946FBF786FAEF
:105580008146002866D13046394600220023FBF7C9
:105590004BFA20B30022002320462946FBF744FAA9
:1055A000834600287DD09FEDA67B0122AA4BCDF833
:1055B00020900092CDE90267CDE904458DED067B90
:1055C0000193B8F1000F5ED09FED9F8BB0EE480ABB
:1055D000F0EE680A0BB0BDEC028BBDE8F08FB0EEC8
:1055E000480AF0EE680A02F0A5FA8046002800F0AA
:1055F00082804FF000084FF0000951EC180B424632
:105600004B46FBF711FA0028E0D047EC106B02F094
:1056100091FA0028DAD045EC104B02F08BFA002802
:10562000D4D09AF900308C4A019204210022022B36
:10563000CDE90267CDE90445CDE9068900910892DC
:1056400003D0684602F008FB10BB02F031FC2223B5
:1056500003601DE00022002320462946FBF7E4F901
:105660000028B3D09FED788B01227B4BCDF820B082
:10567000B8F1020F0092CDE90267CDE904458DED46
:10568000068B0193A2D0684602F0E6FA002878D093
:10569000089B1BB102F00CFC089B03609DED068B80
:1056A00094E745EC104B02F045FA00288ED000221A
:1056B000002320462946FBF7C1F9002886D0664A18
:1056C0009AF90030CDF820B00121CDE90267CDE98B
:1056D0000445CDE90012002B58D060490020022B70
:1056E000CDE9060156D102F0E3FB21230360089BBC
:1056F000002BD3D0CEE747EC106B02F01BFA00284A
:105700003FF477AF45EC104B02F014FA00283FF459
:1057100070AF53EC182B18EE100A1946FBF7B6F9C8
:105720009AF9009000286FD10323DFF82CC108906C
:105730002946204600930022494BCDF804C0CDE90C
:105740000445CDE90267FAF707FF04460D46B9F1B3
:10575000000F25D1DFF814914FF06048002200239C
:1057600030463946CDE90689FBF768F938BB68460B
:1057700002F072FA0028BAD102F09AFB22230360E9
:10578000B5E702F095FB2123036081E79FED2C7BB9
:105790008DED067B684602F05FFA0028A7D1A2E7EC
:1057A0009FED2B7B00220023304639468DED067B92
:1057B000FBF744F9B0B9B9F1020FDDD0D7E745ECFA
:1057C000104B02F055FA22462B4651EC100BFBF71A
:1057D0002BF9B0B9234B9AF900904FF06042CDE914
:1057E0000623E8E745EC104B02F042FA22462B462E
:1057F00051EC100BFBF718F918B9184B0022CDE942
:1058000006239AF90090D6E70122134BCDF82080A9
:105810000092CDE90267CDE904450193B9F1000F8B
:10582000B4D00022002310461946FAF7BFFFB9F1A1
:10583000020FCDE906013FF456AFABE7AFF30080AE
:105840000000000000000000000000000000F03F29
:10585000000000000000F07FC0A900080000F0FF79
:105860000000E03FFFFFEFC70C000020FFFFEF4705
:105870002DE9F0432DED028B8BB055EC104B01F070
:10588000BDF8274BB0EE408AF0EE608A93F90060D5
:10589000731C12D022462B4620462946FBF7F6F809
:1058A000074650B94FF000084FF00009204629463E
:1058B00042464B46FBF7C2F840B9B0EE480AF0EE5C
:1058C000680A0BB0BDEC028BBDE8F0830122154BDA
:1058D00008970092CDE90445CDE90245019396B1C0
:1058E00042464B4640464946FAF760FF022ECDE954
:1058F00006010AD102F0DCFA21230360089B53B9A8
:105900009DED068BD9E7CDE90689684602F0A4F93A
:105910000028F3D1EEE702F0CBFA089B0360EFE733
:105920000C000020C4A9000851EC110B43422DE9E2
:10593000F047034321F0004E6B4F4EEAD373BB4256
:1059400055EC104B1ED86342234325F0004A4AEA27
:10595000D373BB42A94615D801F1404303F5801328
:1059600003433DD08E1706F002065AEA040346EAC6
:10597000D5760FD1022E52D0032E3CD148A1D1E9C9
:10598000000103E022462B46FAF730FC41EC100BF5
:10599000BDE8F0875EEA000326D0BE452FD0BA45A9
:1059A00022D0AAEB0E0E4FEA2E5EBEF13C0F3ADC7F
:1059B00000293CDA1EF13C0F39DA00200021012ECB
:1059C00051D0022E42D0002EE0D037A3D3E90023DD
:1059D000FAF70AFC36A3D3E90023FAF705FCD5E76A
:1059E000BDE8F04701F0F0BEB9F1000F13DB32A1C2
:1059F000D1E90001CAE710EE100A2946C6E7F245D0
:105A000035D0022E0BD0032EB8D0012E4FF000005F
:105A100037D00021BAE72AA1D1E90001B6E724A1D5
:105A2000D1E90001B2E724A1D1E90001C7E70246AC
:105A30000B4620462946FAF7B9FE41EC100B02F05E
:105A40006FF801F0C1FE51EC100BB8E716A3D3E9D3
:105A50000023FAF7C9FB02460B4615A1D1E9000164
:105A6000FAF7C2FB92E701F1004319468EE7022ED6
:105A700012D0032E0CD0012E06D013A1D1E90001C3
:105A800084E74FF0004181E711A1D1E900017DE7F2
:105A900011A1D1E9000179E711A1D1E9000175E770
:105AA000182D4454FB2109C0075C143326A6A13CE1
:105AB000182D4454FB210940182D4454FB21F93F73
:105AC000182D4454FB21F9BF182D4454FB21E93F04
:105AD000182D4454FB21E9BFD221337F7CD902C069
